:1000000012C024C023C022C021C020C01FC01EC0F7
:100010001DC01CC01BC01AC019C018C017C016C014
:1000200015C014C013C011241FBECFE5D4E0DEBF3D
:10003000CDBF10E0A0E6B0E0EEE3F2E002C0059034
:100040000D92A636B107D9F7BBD0F7C0D9CF11B8FA
:1000500082E080B984E086BF089584EA86BF06B650
:1000600007FEFDCF089583B984E886BF06B607FE74
:10007000FDCF0895CF93C82FF0DF81B1887F8830FE
:1000800089F48EE4F0DF81B1887F883169F48C2FA8
:100090008860E9DF81B1887F883241F484E986BFD6
:1000A00081E005C080E003C080E001C080E0CF9126
:1000B0000895CF93C82FDEDF00008C2F8460DADF35
:1000C00000008C2F8B7FD6DF80E18A95F1F700C08E
:1000D000CF910895CF93DF93C82FD62F807F862BA3
:1000E000E8DF20E1C29FC00111248D2BE2DFDF9108
:1000F000CF91089583ED90E30197F1F700C00000E0
:1001000080E3D7DF84E694E00197F1F700C00000B8
:1001100080E3CFDF84E694E00197F1F700C00000B0
:1001200080E3C7DF92E39A95F1F780E2C2DF60E0F7
:1001300088E2D0DF60E08CE0CDDF60E081E0CADF04
:1001400083EF91E00197F1F700C0000060E086E0E6
:10015000C1DF60E082E0BEDF83EF91E00197F1F75D
:1001600000C000000895CF93DF9300D0CDB7DEB775
:10017000198290E49A83FE01E80FF11D8181860FB8
:1001800060E08068A7DF0F900F90DF91CF91089516
:10019000CF93C42FE8DF61E08C2F9CDFCF910895CF
:1001A000CF93DF93EA01DFDF8881882331F0219646
:1001B00061E090DF89918111FBCFDF91CF910895AC
:1001C00010BC8CE089B988E18AB986E880BD3FDF40
:1001D00091DF40E650E060E080E0E2DF43E650E09F
:1001E00060E081E0DDDFC1E2D2E04C2F6D2F80E0E6
:1001F000CFDF5D9BFECFCCB98FE493EC0197F1F795
:1002000000C000005F9BFECF4CB16D2F81E0C0DFCE
:10021000DF3011F0DF5F01C0D2E0CF3721F0CF3DFA
:1002200021F0CF5F03C0C1EA01C0C1E28FE493ECCB
:0E0230000197F1F700C00000D8CFF894FFCF7F
:06023E00533A00523A00A1
:00000001FF
