:1000000012C02CC02BC02AC029C028C027C026C0BF
:1000100025C024C023C022C021C020C01FC01EC0D4
:100020001DC01CC01BC011241FBECFE5D4E0DEBF25
:10003000CDBF10E0A0E6B0E0E2EEF0E002C0059037
:100040000D92A837B107D9F720E0A8E7B0E001C0CA
:100050001D92A937B207E1F736D041C0D1CF811147
:1000600002C037E001C033E0611102C0E32F01C0DC
:10007000E1E094B39F6094BB60E070E028E0829F71
:10008000C0011124805A9F4F64177507D9F0209141
:1000900078002E0F23232093780025B3207F25BBE3
:1000A000F5B320917800DC01A20FB11D2C912F2B0C
:1000B00025BBA0EEB0E01197F1F700C000006F5F24
:1000C0007F4FE2CF08958898909A40E050E1809B5E
:1000D00002C061E001C060E080E0C1DFF6CFF894CB
:0200E000FFCF50
:1000E20001030206040C080903060C0900000000C3
:0800F2000102040800000000F7
:00000001FF
