S0090000342E73726563E7
S113000012C019C018C017C016C015C014C013C040
S113001012C011C010C00FC00EC00DC00CC00BC068
S11300200AC009C008C011241FBECFE5D4E0DEBF5A
S1130030CDBF02D051C0E4CF81E087BB8998E1E015
S1130040819B48C0E7BB64E670E020E030E0C09AE2
S113005033234CF080E090E042E34A95F1F70196B7
S113006028173907CCF7C098AB01161617064CF4BD
S113007080E090E0F2E3FA95F1F701968417950792
S1130080C9F72F5F3F4F6150710909F724E630E04B
S1130090C09A33234CF080E090E042E34A95F1F7B4
S11300A0019628173907CCF7C098AB011616170626
S11300B04CF480E090E0F2E3FA95F1F701968417AE
S11300C09507C9F7215031096F5F7F4F211531051D
S10F00D0F9F6B6CFC098B4CFF894FFCF77
S9030000FC
