:1000000012C021C020C01FC01EC01DC01CC01BC00C
:100010001BC019C018C017C016C015C014C013C02B
:1000200012C011C010C011241FBECFE5D4E0DEBF46
:10003000CDBF20E0A0E6B0E001C01D92A136B2071E
:10004000E1F72DD043C0DCCF1F920F920FB60F9275
:1000500011248F939F93809160008F5F8093600045
:100060008A3F18F01092600002C08D3740F41BBC2C
:100070001ABC88B599B5049699BD88BD09C084EFAE
:1000800091E09BBD8ABD88B599B5049799BD88BD9F
:100090009F918F910F900FBE0F901F90189587B36F
:1000A000866087BB84EF91E097BD86BD81E090E0DC
:1000B0009BBD8ABD99BD88BD8FB5806F8FBD8EB544
:1000C00082618EBD84E089BF7894FFCFF894FFCF22
:00000001FF
