S00E0000352E31342E312E73726563EF
S113000012C02CC02BC02AC029C028C027C026C0BB
S113001025C002C123C022C021C020C01FC01EC0F1
S11300201DC01CC01BC011241FBECFE5D4E0DEBF21
S1130030CDBF10E0A0E6B0E0EEEFF2E002C0059024
S11300400D92A637B107D9F720E0A6E7B0E001C0CA
S11300501D92A837B207E1F7AED04FC1D1CF11B886
S113006082E080B984E086BF089584EA86BF06B63C
S113007007FEFDCF089583B984E886BF06B607FE60
S1130080FDCF0895CF93C82FF0DF81B1887F8830EA
S113009089F48EE4F0DF81B1887F883169F48C2F94
S11300A08860E9DF81B1887F883241F484E986BFC2
S11300B081E005C080E003C080E001C080E0CF9112
S11300C00895CF93C82FDEDF00008C2F8460DADF21
S11300D000008C2F8B7FD6DF80E18A95F1F700C07A
S11300E0CF910895CF93DF93C82FD62F807F862B8F
S11300F0E8DF20E1C29FC00111248D2BE2DFDF91F4
S1130100CF91089583ED90E30197F1F700C00000CB
S113011080E3D7DF84E694E00197F1F700C00000A4
S113012080E3CFDF84E694E00197F1F700C000009C
S113013080E3C7DF92E39A95F1F780E2C2DF60E0E3
S113014088E2D0DF60E08CE0CDDF60E081E0CADFF0
S113015083EF91E00197F1F700C0000060E086E0D2
S1130160C1DF60E082E0BEDF83EF91E00197F1F749
S113017000C000000895CF93DF9300D0CDB7DEB761
S1130180198290E49A83FE01E80FF11D8181860FA4
S113019060E08068A7DF0F900F90DF91CF91089502
S11301A061E0A0DF0895CF93C42FE5DF61E08C2FD9
S11301B099DFCF91089580EF81BB8FEF82BB85E0FB
S11301C083BF86E682BF89B7816089BF48DF9ADF33
S11301D07894C0E6D0E0EB81F0E0EB59FF4F40812A
S11301E061E080E0E0DFEA81F0E0EB59FF4F8081DD
S11301F0D7DFE981F0E0EB59FF4F8081D1DFE8815F
S1130200F0E0EB59FF4F8081CBDF87E893E1019762
S1130210F1F700C00000DFCF1F920F920FB60F92CC
S113022011248F939F93EF93FF9386E682BF80E11F
S1130230809376008FE782BB00C080B38F70809379
S113024077008B3061F018F4873031F013C08D30B3
S113025051F08E3061F00EC0109276000BC081E038
S11302608093760007C082E08093760003C083E029
S1130270809376008FEB82BB00C080B38F70809335
S113028077008FEE82BB00C080B38F7080937700BD
S11302908B3069F018F4873031F015C08D3059F087
S11302A08E3069F010C08CE0809376001AC08DE027
S11302B08093760016C08EE08093760012C08FE0A3
S11302C0809376000EC080917600803168F4E0E679
S11302D0F0E09281938391819283908191838083D2
S11302E003C080917600F3CFFF91EF919F918F919E
S11102F00F900FBE0F901F901895F894FFCF3B
S11302FE101010100030313233343536373839415E
S109030E42434445462D64
S9030000FC
