S01700004763634170706C69636174696F6E322E737265635A
S113000012C024C023C022C021C020C01FC01EC0F3
S11300101DC01CC01BC01AC019C018C017C016C010
S113002015C014C013C011241FBECFE5D4E0DEBF39
S1130030CDBF10E0A0E6B0E0E6EDF5E002C005902B
S11300400D92AA36B107D9F7EBD0C3C2D9CF11B8F4
S113005082E080B984E086BF089584EA86BF06B64C
S113006007FEFDCF089583B984E886BF06B607FE70
S1130070FDCF0895CF93C82FF0DF81B1887F8830FA
S113008089F48EE4F0DF81B1887F883169F48C2FA4
S11300908860E9DF81B1887F883241F484E986BFD2
S11300A081E005C080E003C080E001C080E0CF9122
S11300B00895CF93C82FDEDF00008C2F8460DADF31
S11300C000008C2F8B7FD6DF80E18A95F1F700C08A
S11300D0CF910895CF93DF93C82FD62F807F862B9F
S11300E0E8DF20E1C29FC00111248D2BE2DFDF9104
S11300F0CF91089583ED90E30197F1F700C00000DC
S113010080E3D7DF84E694E00197F1F700C00000B4
S113011080E3CFDF84E694E00197F1F700C00000AC
S113012080E3C7DF92E39A95F1F780E2C2DF60E0F3
S113013088E2D0DF60E08CE0CDDF60E081E0CADF00
S113014083EF91E00197F1F700C0000060E086E0E2
S1130150C1DF60E082E0BEDF83EF91E00197F1F759
S113016000C000000895CF93DF9300D0CDB7DEB771
S1130170198290E49A83FE01E80FF11D8181860FB4
S113018060E08068A7DF0F900F90DF91CF91089512
S1130190CF93C42FE8DF61E08C2F9CDFCF910895CB
S11301A0CF93DF93EA01DFDF8881882331F0219642
S11301B061E090DF89918111FBCFDF91CF910895A8
S11301C08E9A8D98969A86E08A95F1F700C0969853
S11301D088E293E207C0019729F4859906C062E09A
S11301E070E009C0859BF7CFF8CF62E070E06F5FE5
S11301F07F4F8599FCCF80E090E0EED020E030E0A6
S113020040EA50E477D120E030E048EC52E450D0AA
S113021020E030E048E851E46DD1B2D0CB0108953C
S113022016DF68DFCDDFEC0140E650E060E080E0FF
S1130230B7DF209771F11FE09E01ADECBCECBDD19E
S11302409695879596958795969587959C01220F07
S1130250331F880F991F880F991F880F991F820FCA
S1130260931FAE01481B590B405D612F80E090DF66
S113027011509E01ADECBCECA0D1EC01D695C79514
S1130280D695C795D695C7952097B1F6193010F431
S113029008C01FE040E2612F80E07ADF115019307E
S11302A0C8F787EA91E60197F1F700C00000BACFDA
S11302B00CD0E6C0DED040F0D5D030F021F45F3F62
S11302C019F0C7C0511110C1CAC0EBD098F39923DB
S11302D0C9F35523B1F3951B550BBB27AA27621706
S11302E07307840738F09F5F5F4F220F331F441F4B
S11302F0AA1FA9F333D00E2E3AF0E0E830D0915083
S11303005040E695001CCAF729D0FE2F27D0660F6F
S1130310771F881FBB1F261737074807AB07B0E8AE
S113032009F0BB0B802DBF01FF2793585F4F2AF0C4
S11303309E3F510568F08DC0D7C05F3FECF3983EF7
S1130340DCF3869577956795B795F7959F5FC9F721
S1130350880F911D9695879597F90895E1E0660FAA
S1130360771F881FBB1F621773078407BA0720F023
S1130370621B730B840BBA0BEE1F88F7E09508958C
S113038098D088F09F5790F0B92F9927B751A0F0D3
S1130390D1F0660F771F881F991F1AF0BA95C9F715
S11303A012C0B13081F09FD0B1E008959CC0672F96
S11303B0782F8827B85F39F0B93FCCF386957795C5
S11303C06795B395D9F73EF49095809570956195AE
S11303D07F4F8F4F9F4F0895E89409C097FB3EF4D9
S11303E090958095709561957F4F8F4F9F4F99237E
S11303F0A9F0F92F96E9BB279395F69587957795FC
S11304006795B795F111F8CFFAF4BB0F11F460FFBB
S11304101BC06F5F7F4F8F4F9F4F16C0882311F013
S113042096E911C0772321F09EE8872F762F05C027
S1130430662371F096E8862F70E060E02AF09A95C2
S1130440660F771F881FDAF7880F9695879597F9B7
S1130450089597F99F6780E870E060E008959FEF42
S113046080EC089500240A94161617061806090647
S1130470089500240A941216130614060506089516
S1130480092E0394000C11F4882352F0BB0F40F49E
S1130490BF2B11F460FF04C06F5F7F4F8F4F9F4FDE
S11304A0089557FD9058440F551F59F05F3F71F060
S11304B04795880F97FB991F61F09F3F79F08795C7
S11304C00895121613061406551FF2CF4695F1DF50
S11304D008C0161617061806991FF1CF86957105E0
S11304E0610508940895E894BB2766277727CB0114
S11304F097F908950BD0C4CFB5DF28F0BADF18F010
S1130500952309F0A6CFABCF1124EECFCADFA0F319
S1130510959FD1F3950F50E0551F629FF001729F94
S1130520BB27F00DB11D639FAA27F00DB11DAA1FB3
S1130530649F6627B00DA11D661F829F2227B00D00
S1130540A11D621F739FB00DA11D621F839FA00D8B
S1130550611D221F749F3327A00D611D231F849FDB
S1130560600D211D822F762F6A2F11249F57504032
S11305708AF0E1F088234AF0EE0FFF1FBB1F661FCD
S1130580771F881F91505040A9F79E3F510570F086
S113059060CFAACF5F3FECF3983EDCF38695779566
S11305A06795B795F795E7959F5FC1F7FE2B880F81
S11305B0911D9695879597F90895A29FB001B39FD1
S11305C0C001A39F01D0B29F700D811D1124911D04
S10905D00895F894FFCF2A
S10D05D644697374616E63653A00B2
S9030000FC
