S00C0000657870332E7372656398
S113000012C024C023C022C021C020C01FC01EC0F3
S11300101DC01CC01BC01AC019C018C017C016C010
S113002015C014C013C011241FBECFE5D4E0DEBF39
S1130030CDBF10E0A0E6B0E0ECE5F2E002C0059030
S11300400D92A037B107D9F7B3D006C1D9CF11B8F3
S113005082E080B984E086BF089584EA86BF06B64C
S113006007FEFDCF089583B984E886BF06B607FE70
S1130070FDCF0895CF93C82FF0DF81B1887F8830FA
S113008089F48EE4F0DF81B1887F883169F48C2FA4
S11300908860E9DF81B1887F883241F484E986BFD2
S11300A081E005C080E003C080E001C080E0CF9122
S11300B00895CF93C82FDEDF00008C2F8460DADF31
S11300C000008C2F8B7FD6DF80E18A95F1F700C08A
S11300D0CF910895CF93DF93C82FD62F807F862B9F
S11300E0E8DF20E1C29FC00111248D2BE2DFDF9104
S11300F0CF91089583ED90E30197F1F700C00000DC
S113010080E3D7DF84E694E00197F1F700C00000B4
S113011080E3CFDF84E694E00197F1F700C00000AC
S113012080E3C7DF92E39A95F1F780E2C2DF60E0F3
S113013088E2D0DF60E08CE0CDDF60E081E0CADF00
S113014083EF91E00197F1F700C0000060E086E0E2
S1130150C1DF60E082E0BEDF83EF91E00197F1F759
S113016000C000000895CF93DF9300D0CDB7DEB771
S1130170198290E49A83FE01E80FF11D8181860FB4
S113018060E08068A7DF0F900F90DF91CF91089512
S1130190CF93DF93EA01E7DF8881882331F021964A
S11301A061E098DF89918111FBCFDF91CF910895B0
S11301B0CF93DF9300D01F92CDB7DEB716BE84B3C2
S11301C08F7C84BB85B3806385BBA39A86E682B9A2
S11301D03EDF90DFC12C0F2EF4ECFF2EF02D8E01AC
S11301E00F5F1F4F0F2EFDECEF2EF02D6894DD24D2
S11301F0D7F8F6BE06B607FEFDCF81B1887F8036FC
S113020049F5F6BE06B607FEFDCF81B1887F80387A
S113021011F4C3B0F6BEFE0135968C2D8E9D912D42
S11302201124969596959695392F330F232F220FE7
S1130230220F230F821B805D8293892FE017F10721
S113024069F740E650E063E080E0A2DFA80168E0DF
S10F025081E09EDFD6BECDCFF894FFCF36
S113025C546F7563687061642054696D65733A00FA
S9030000FC
