S00E0000352E31342E362E73726563EA
S113000012C02CC02BC02AC029C028C027C026C0BB
S113001025C024C023C022C021C020C01FC01EC0D0
S11300201DC01CC01BC011241FBECFE5D4E0DEBF21
S1130030CDBF10E0A0E6B0E0E2E3F2E002C005903C
S11300400D92AC36B107D9F720E0ACE6B0E001C0C0
S11300501D92AC36B207E1F7BBD0E9C0D1CF11B8DD
S113006082E080B984E086BF089584EA86BF06B63C
S113007007FEFDCF089583B984E886BF06B607FE60
S1130080FDCF0895CF93C82FF0DF81B1887F8830EA
S113009089F48EE4F0DF81B1887F883169F48C2F94
S11300A08860E9DF81B1887F883241F484E986BFC2
S11300B081E005C080E003C080E001C080E0CF9112
S11300C00895CF93C82FDEDF00008C2F8460DADF21
S11300D000008C2F8B7FD6DF80E18A95F1F700C07A
S11300E0CF910895CF93DF93C82FD62F807F862B8F
S11300F0E8DF20E1C29FC00111248D2BE2DFDF91F4
S1130100CF91089583ED90E30197F1F700C00000CB
S113011080E3D7DF84E694E00197F1F700C00000A4
S113012080E3CFDF84E694E00197F1F700C000009C
S113013080E3C7DF92E39A95F1F780E2C2DF60E0E3
S113014088E2D0DF60E08CE0CDDF60E081E0CADFF0
S113015083EF91E00197F1F700C0000060E086E0D2
S1130160C1DF60E082E0BEDF83EF91E00197F1F749
S113017000C000000895CF93DF9300D0CDB7DEB761
S1130180198290E49A83FE01E80FF11D8181860FA4
S113019060E08068A7DF0F900F90DF91CF91089502
S11301A0CF93C42FE8DF61E08C2F9CDFCF910895BB
S11301B0CF93DF93EA01DFDF8881882331F0219632
S11301C061E090DF89918111FBCFDF91CF91089598
S11301D012BE87E083BF80E880BD10BC8CE089B983
S11301E088E18AB986E880BD3ADF8CDF40E650E0DA
S11301F060E080E0DDDFC0E0D0E082B7C81729F01E
S1130200C2B75D9BFECFCCB901C0C82F5F9B05C0B0
S11302104CB16D2F81E0C4DFDF5FD03108F0D0E056
S113022089EF90E00197F1F700C00000E6CFF89461
S1050230FFCFFA
S10F0232613A546F7563687061640000E9
S9030000FC
