S0090000322E73726563E9
S113000012C019C018C017C016C015C014C013C040
S113001012C011C010C00FC00EC00DC00CC00BC068
S11300200AC009C008C011241FBECFE5D4E0DEBF5A
S1130030CDBF02D02BC0E4CF87B38E6087BB62E014
S113004054E048E068BB24E630E005C00197F1F7CE
S11300502150310919F088EE93E0F8CF58BB24E61B
S113006030E005C00197F1F72150310919F088EE0D
S113007093E0F8CF48BB24E630E005C00197F1F7E0
S113008021503109F9F288EE93E0F8CFF894FFCFCC
S9030000FC
