S00C0000657870342E7372656397
S113000012C0C3C023C022C021C020C01FC01EC054
S1130010D1C01CC01BC01AC019C018C017C016C05C
S113002015C014C013C011241FBECFE5D4E0DEBF39
S1130030CDBF10E0A0E6B0E0EEE5F2E002C005902E
S11300400D92A236B107D9F7CDD007C1D9CF84EA32
S113005086BF06B607FEFDCF089583B984E886BF40
S113006006B607FEFDCF0895CF93C82FF0DF81B108
S1130070887F883011F080E010C08EE4EEDF81B11B
S1130080887F8831C1F78C2F8860E7DF81B1887F52
S1130090883289F784E986BF81E0CF910895CF93B0
S11300A0C82FE2DF00008C2F8460DEDF00008C2F7D
S11300B08B7FDADF80E18A95F1F700C0CF91089554
S11300C0CF93DF93C82FD62F807F862BE8DF20E1E4
S11300D0C29FC00111248D2BDF91CF91E0CF83ED1E
S11300E090E30197F1F700C0000080E3D8DF84E6D5
S11300F094E00197F1F700C0000080E3D0DF84E6CC
S113010094E00197F1F700C0000080E3C8DF92E3B8
S11301109A95F1F780E2C3DF60E088E2D1DF60E026
S11301208CE0CEDF60E081E0CBDF83EF91E00197EC
S1130130F1F700C0000060E086E0C2DF60E082E02A
S1130140BFDF83EF91E00197F1F700C0000008954D
S1130150CF93DF9300D0CDB7DEB7198290E49A83B2
S1130160FE01E80FF11D8181860F60E080680F9029
S11301700F90DF91CF91A4CF61E0A2CFCF93C42F92
S1130180E7DF61E08C2FCF919BCF1F920F920FB6C8
S11301900F9211248F9380916000843110F48F5F4B
S11301A001C081E0809360008F910F900FBE0F908B
S11301B01F9018951F920F920FB60F9211242F9330
S11301C08F939F938091600026E0829FC001112449
S11301D09BBD8ABD9F918F912F910F900FBE0F9061
S11301E01F9018957CDFB99A88EC90E097BD86BD86
S11301F08AE090E09BBD8ABD8FB5806C8FBD8EB5C3
S113020082618EBD84E089BF8A9885B7836085BF8B
S11302108BB780648BBF7894DAE0809160006D2F97
S113022010D0C92F40E3480F66E080E0A7DF80E3E9
S11302308C0FA2DF83EF91E00197F1F700C000007B
S1130240ECCF991B79E004C0991F961708F0961B10
S1110250881F7A95C9F780950895F894FFCF1A
S105025E010099
S9030000FC
