:1000000012C025C03BC022C021C020C01FC01EC0DE
:100010001DC01CC01BC01AC019C018C017C016C014
:1000200015C014C013C011241FBECFE5D4E0DEBF3D
:10003000CDBF10E0A0E6B0E0EAE0F2E002C005903B
:100040000D92A436B107D9F73ED0DDC0D9CF1F92AB
:100050000F920FB60F9211248F93809162008B350F
:1000600020F08AE08093620003C08B5F809362007F
:100070008F910F900FBE0F901F9018951F920F92A7
:100080000FB60F9211242F938F939F93809160004E
:100090009091610080342FE1920738F08EE190E07A
:1000A000909361008093600006C08C599F4F90939D
:1000B0006100809360009F918F912F910F900FBEF0
:1000C0000F901F90189581B3837F81BB82B38C60A2
:1000D00082BBB99A85B78A6085BF8BB7806C8BBFAE
:1000E00078940F2E812CF2E19F2EFAE7AF2EB12CDF
:1000F000F02D0F2EF4E6CF2ED12CE12CF12CF02D8B
:10010000209160003091610040E050E0C501B401F1
:1001100042D029013A01A0916200B0E06AD0A70163
:10012000960139D0F201E21BF30BEB3065E0F607E4
:1001300010F0EA50F540ABEABAEA4FD0AC01569560
:10014000479556954795569547959F0146D0969564
:1001500087959695879596958795C19A41155105EE
:1001600059F020E030E062E06A95F1F700C02F5FBF
:100170003F4F42175307B9F7C198009709F220E0A3
:1001800030E042E04A95F1F700C02F5F3F4F821701
:100190009307B9F7B5CFA1E21A2EAA1BBB1BFD012D
:1001A0000DC0AA1FBB1FEE1FFF1FA217B307E40756
:1001B000F50720F0A21BB30BE40BF50B661F771FAE
:1001C000881F991F1A9469F760957095809590958E
:1001D0009B01AC01BD01CF010895A29FB001B39F67
:1001E000C001A39F01D0B29F700D811D1124911DEC
:1001F0000895F3DFA59F900DB49F900DA49F800DEF
:0A020000911D11240895F894FFCF1A
:04020A001E003200A0
:00000001FF
