:1000000012C019C018C017C016C015C014C013C044
:1000100012C011C010C00FC00EC00DC00CC00BC06C
:100020000AC009C008C011241FBECFE5D4E0DEBF5E
:10003000CDBF02D04AC0E4CF84E081BB64E670E06B
:1000400020E030E0929A33234CF080E090E042E3ED
:100050004A95F1F7019628173907CCF79298AB012A
:10006000161617064CF480E090E0E2E3EA95F1F70B
:10007000019684179507C9F72F5F3F4F61507109AB
:1000800009F724E630E0929A33234CF080E090E0C8
:1000900042E34A95F1F7019628173907CCF7929871
:1000A000AB01161617064CF480E090E0E2E3EA9507
:1000B000F1F7019684179507C9F7215031096F5F51
:0E00C0007F4F21153105F9F6B9CFF894FFCF27
:00000001FF
