S00C0000657870322E7372656399
S113000012C022C020C01FC01EC01DC01CC01BC007
S11300101AC019C018C017C016C015C014C013C028
S113002012C011C010C011241FBECFE5D4E0DEBF42
S1130030CDBF20E0A0E6B0E001C01D92A136B2071A
S1130040E1F718D055C0DCCF1F920F920FB60F9274
S113005011248F93809160008F3020F48F5F809300
S1130060600002C0109260008F910F900FBE0F903D
S11300701F90189584B38F7C84BB85B3806385BB44
S113008082E080B911B88A9885B7836085BF8BB741
S113009080648BBF789424EA46E634E854E990E817
S11300A026BF06B607FEFDCF81B1887F8830A9F44C
S11300B043B936BF06B607FEFDCF81B1887F8831CC
S11300C061F48091600083B936BF06B607FEFDCFA8
S11300D081B1887F883209F456BF96BF6FE976E80C
S11300E081E0615070408040E1F700C00000D8CF4B
S10700F0F894FFCFAE
S9030000FC
