:1000000012C02CC02BC02AC029C028C027C026C0BF
:1000100025C024C023C022C021C020C01FC01EC0D4
:100020001DC01CC01BC011241FBECFE5D4E0DEBF25
:10003000CDBF10E0A0E6B0E0E4E0FAE002C0059039
:100040000D92AC38B107D9F720E0ACE8B0E001C0C0
:100050001D92AD38B207E1F72ED1D2C4D1CF11B87D
:1000600082E080B984E086BF089584EA86BF06B640
:1000700007FEFDCF089583B984E886BF06B607FE64
:10008000FDCF0895CF93C82FF0DF81B1887F8830EE
:1000900089F48EE4F0DF81B1887F883169F48C2F98
:1000A0008860E9DF81B1887F883241F484E986BFC6
:1000B00081E005C080E003C080E001C080E0CF9116
:1000C0000895CF93C82FDEDF00008C2F8460DADF25
:1000D00000008C2F8B7FD6DF80E18A95F1F700C07E
:1000E000CF910895CF93DF93C82FD62F807F862B93
:1000F000E8DF20E1C29FC00111248D2BE2DFDF91F8
:10010000CF91089583ED90E30197F1F700C00000CF
:1001100080E3D7DF84E694E00197F1F700C00000A8
:1001200080E3CFDF84E694E00197F1F700C00000A0
:1001300080E3C7DF92E39A95F1F780E2C2DF60E0E7
:1001400088E2D0DF60E08CE0CDDF60E081E0CADFF4
:1001500083EF91E00197F1F700C0000060E086E0D6
:10016000C1DF60E082E0BEDF83EF91E00197F1F74D
:1001700000C000000895CF93DF9300D0CDB7DEB765
:10018000198290E49A83FE01E80FF11D8181860FA8
:1001900060E08068A7DF0F900F90DF91CF91089506
:1001A000CF93C42FE8DF61E08C2F9CDFCF910895BF
:1001B000CF93DF93EA01DFDF8881882331F0219636
:1001C00061E090DF89918111FBCFDF91CF9108959C
:1001D0008E9A8D98969A86E08A95F1F700C0969847
:1001E00088E293E207C0019729F4859906C062E08E
:1001F00070E009C0859BF7CFF8CF62E070E06F5FD9
:100200007F4F8599FCCF80E090E0D5D220E030E0B0
:1002100040EA50E462D320E030E048EC52E437D2C8
:1002200020E030E048E851E458D399D2CB0108955A
:10023000CF93DA01811102C047E001C043E06111B0
:1002400002C0C42F01C0C1E094B39F6094BB10975B
:1002500049F120E030E0682F70E0660F771F660FED
:10026000771F660F771F6C587F4F90918C009C0F03
:10027000942390938C0095B3907F95BB55B3909148
:100280008C00FB01E90FF11D9081952B95BB80EE51
:1002900090E00197F1F700C000002F5F3F4FA217D9
:1002A000B30719F7CF9108958F70806487B983EAF7
:1002B00086B9369A0895CF93DF93CDB7DEB72C97E2
:1002C0000FB6F894DEBF0FBECDBFC9DE1BDF81B312
:1002D000876081BB8898909A15DF86E0E5DF689497
:1002E000882482F86894552451F8FF24F394689484
:1002F000992495F85E0129E0A20EB11C0F2EFDECA9
:10030000EF2EF02D0F2EFEE26F2EF02D6E0138E055
:10031000C30ED11C82BA8FE996E8E1E0815090408B
:10032000E040E1F700C0000024E630E005C001979E
:10033000F1F72150310919F088EE93E0F8CF52BA65
:10034000FFE926E831E0F15020403040E1F700C0FD
:10035000000024E630E005C00197F1F72150310993
:1003600019F088EE93E0F8CFF2BA8FE996E8E1E071
:1003700081509040E040E1F700C0000024E630E00A
:1003800005C00197F1F72150310919F088EE93E08B
:10039000F8CF1EDF8C0140E650E060E080E008DF2F
:1003A0000115110509F443C00F2EFFE07F2EF02D3B
:1003B0009801ADECBCEC18D39695879596958795EA
:1003C000969587959C01220F331F880F991F880FE0
:1003D000991F880F991F820F931F9801281B390BB3
:1003E00040E3420F672D80E0DBDE003137E2130788
:1003F00030F44AE650E0682D8F2DDADE05C040E784
:1004000050E060E08F2DD4DE7A949801ADECBCEC26
:10041000EBD28C01169507951695079516950795BD
:100420000115110529F688E0871528F00CC00F2E5C
:10043000FFE07F2EF02D492D672D80E0B1DE7A940C
:1004400098E09715C0F3E7EAF1E63197F1F700C0BD
:100450000000809B06C040E050E16F2D80E0E8DEA8
:1004600005C040E050E160E080E0E2DE349BFECF7A
:1004700014B165B170E080E090E09FD120E030E001
:1004800040E853E42AD269877A878B879C87612F5B
:1004900070E080E090E091D19B01AC0169857A85A4
:1004A0008B859C8590D020E030E040EA5BE315D25C
:1004B00069877A878B879C87FE0131969192AE1669
:1004C000BF06E1F769857A858B859C8548D1162F13
:1004D00070E080E090E071D19B01AC0169857A8584
:1004E0008B859C856FD069877A878B879C87112342
:1004F00001F11E9D812D1124869586958695282FC4
:10050000220F922F990F990F920F191B912F905D27
:100510009B83882371F08E9D912D1124969596953D
:100520009695990F292F220F220F920F891B805D1C
:100530008A836C8220E030E0A90169857A858B8509
:100540009C85C7D118169CF58E010B5F1F4F20E0CC
:1005500030E040E251E469857A858B859C85BDD188
:1005600069877A878B879C87FAD0762E70E080E047
:1005700090E023D19B01AC0169857A858B859C85B0
:1005800021D069877A878B879C8780E3870DF80164
:1005900081938F0120E030E0A90169857A858B8500
:1005A0009C8597D118161CF4C016D10681F61886C2
:1005B000AE014F5F5F4F69E08F2DFADDF4E6FA95EB
:1005C000F1F7A8CE5058BB27AA270ED048C139D181
:1005D00030F03ED120F031F49F3F11F41EF42EC1D3
:1005E0000EF4E095E7FB24C1E92F4AD180F3BA1756
:1005F000620773078407950718F071F49EF562C1CE
:100600000EF4E0950B2EBA2FA02D0B01B90190012D
:100610000C01CA01A0011124FF27591B99F0593F71
:1006200050F4503E68F11A16F040A22F232F342FB9
:100630004427585FF3CF469537952795A795F04007
:100640005395C9F77EF41F16BA0B620B730B840B1C
:10065000BAF09150A1F0FF0FBB1F661F771F881FD4
:10066000C2F70EC0BA0F621F731F841F48F487952C
:1006700077956795B795F7959E3F08F0B3CF93951B
:10068000880F08F09927EE0F9795879508950CD05D
:10069000E6C0DED040F0D5D030F021F45F3F19F055
:1006A000C7C0511110C1CAC0EBD098F39923C9F348
:1006B0005523B1F3951B550BBB27AA276217730768
:1006C000840738F09F5F5F4F220F331F441FAA1F1C
:1006D000A9F333D00E2E3AF0E0E830D091505040DC
:1006E000E695001CCAF729D0FE2F27D0660F771F8A
:1006F000881FBB1F261737074807AB07B0E809F06C
:10070000BB0B802DBF01FF2793585F4F2AF09E3F00
:10071000510568F08DC0D7C05F3FECF3983EDCF325
:10072000869577956795B795F7959F5FC9F7880F79
:10073000911D9695879597F90895E1E0660F771FCB
:10074000881FBB1F621773078407BA0720F0621B5C
:10075000730B840BBA0BEE1F88F7E095089598D0C1
:1007600088F09F5790F0B92F9927B751A0F0D1F09A
:10077000660F771F881F991F1AF0BA95C9F712C024
:10078000B13081F09FD0B1E008959CC0672F782FE1
:100790008827B85F39F0B93FCCF386957795679590
:1007A000B395D9F73EF490958095709561957F4FFC
:1007B0008F4F9F4F0895E89409C097FB3EF49095A2
:1007C0008095709561957F4F8F4F9F4F9923A9F02A
:1007D000F92F96E9BB279395F695879577956795B9
:1007E000B795F111F8CFFAF4BB0F11F460FF1BC0FD
:1007F0006F5F7F4F8F4F9F4F16C0882311F096E990
:1008000011C0772321F09EE8872F762F05C066233D
:1008100071F096E8862F70E060E02AF09A95660FF6
:10082000771F881FDAF7880F9695879597F90895AF
:1008300097F99F6780E870E060E008959FEF80EC93
:10084000089500240A941616170618060906089536
:1008500000240A9412161306140605060895092E9C
:100860000394000C11F4882352F0BB0F40F4BF2B0B
:1008700011F460FF04C06F5F7F4F8F4F9F4F08954B
:1008800057FD9058440F551F59F05F3F71F0479541
:10089000880F97FB991F61F09F3F79F08795089526
:1008A000121613061406551FF2CF4695F1DF08C045
:1008B000161617061806991FF1CF86957105610562
:1008C00008940895E894BB2766277727CB0197F90A
:1008D000089566D008F48FEF08950BD0C0CFB1DF34
:1008E00028F0B6DF18F0952309F0A2CFA7CF112486
:1008F000EACFC6DFA0F3959FD1F3950F50E0551FC7
:10090000629FF001729FBB27F00DB11D639FAA2764
:10091000F00DB11DAA1F649F6627B00DA11D661FB3
:10092000829F2227B00DA11D621F739FB00DA11DD4
:10093000621F839FA00D611D221F749F3327A00D8E
:10094000611D231F849F600D211D822F762F6A2F2A
:1009500011249F5750408AF0E1F088234AF0EE0FAF
:10096000FF1FBB1F661F771F881F91505040A9F7BC
:100970009E3F510570F05CCFA6CF5F3FECF3983EF1
:10098000DCF3869577956795B795F795E7959F5F23
:10099000C1F7FE2B880F911D9695879597F90895BD
:1009A000990F0008550FAA0BE0E8FEEF1616170680
:1009B000E807F907C0F012161306E407F50798F0E8
:1009C000621B730B840B950B39F40A2661F0232B01
:1009D000242B252B21F408950A2609F4A140A6957D
:1009E0008FEF811D811D0895A29FB001B39FC001AB
:1009F000A39F01D0B29F700D811D1124911D0895F8
:040A0000F894FFCF98
:100A040044697374616E63653A00436C6F73650087
:100A14004E4F540001030206040C080903060C0996
:0C0A2400000000000102040800000000B7
:00000001FF
