S01700004763634170706C69636174696F6E332E7372656359
S113000012C024C023C022C021C020C01FC01EC0F3
S11300101DC01CC01BC01AC019C018C017C016C010
S113002015C014C013C011241FBECFE5D4E0DEBF39
S1130030CDBF10E0A0E6B0E0E2E7F6E002C0059034
S11300400D92AC36B107D9F7B4D011C3D9CF84EA35
S113005086BF06B607FEFDCF089583B984E886BF40
S113006006B607FEFDCF0895CF93C82FF0DF81B108
S1130070887F883089F48EE4F0DF81B1887F88310D
S113008069F48C2F8860E9DF81B1887F883241F47C
S113009084E986BF81E005C080E003C080E001C040
S11300A080E0CF910895CF93C82FDEDF00008C2F1E
S11300B08460DADF00008C2F8B7FD6DF80E18A95A5
S11300C0F1F700C0CF910895CF93DF93C82FD62FB7
S11300D0807F862BE8DF20E1C29FC00111248D2B95
S11300E0E2DFDF91CF91089583ED90E30197F1F77B
S11300F000C0000080E3D7DF84E694E00197F1F7C5
S113010000C0000080E3CFDF84E694E00197F1F7BC
S113011000C0000080E3C7DF92E39A95F1F780E224
S1130120C2DF60E088E2D0DF60E08CE0CDDF60E039
S113013081E0CADF83EF91E00197F1F700C000008E
S113014060E086E0C1DF60E082E0BEDF83EF91E043
S11301500197F1F700C000000895CF93DF9300D01A
S1130160CDB7DEB7198290E49A83FE01E80FF11D42
S11301708181860F60E08068A7DF0F900F90DF9188
S1130180CF910895CF93DF93EA01E7DF8881882335
S113019031F0219661E098DF89918111FBCFDF91E5
S11301A0CF9108958F70806487B983EA86B9369AAF
S11301B00895CF93DF93CDB7DEB728970FB6F894A1
S11301C0DEBF0FBECDBF90DF83E0ECDF6E0189E0C0
S11301D0C80ED11C00E20F2EFDEC9F2EF02D0F2E29
S11301E0FEE28F2EF02D5E01E8E0AE0EB11C349BD2
S11301F0FECF14B165B170E080E090E021D120E041
S113020030E040E853E4ACD12B013C01612F70E0B5
S113021080E090E015D19B01AC01C301B2017ED016
S113022020E030E040EA5BE39BD12B013C01FE017E
S113023031960193CE16DF06E1F740E650E060E028
S113024080E0A0DFC301B201CDD0162F70E080E0C2
S113025090E0F6D09B01AC01C301B2015ED02B014A
S11302603C011123F9F0199D812D11248695869561
S11302708695282F220F922F990F990F920F191BF1
S1130280105D1B83882371F0899D912D112496950F
S113029096959695990F292F220F220F920F891B5D
S11302A0805D8A838C8220E030E0A901C301B20121
S11302B053D118163CF57E01F5E0EF0EF11C20E059
S11302C030E040E251E4C301B2014AD12B013C01C8
S11302D089D0162F70E080E090E0B2D09B01AC0191
S11302E0C301B2011AD02B013C01105DF701119337
S11302F07F0120E030E0A9012FD118161CF4EA1484
S1130300FB04E9F61886AE014F5F5F4F68E081E0B9
S113031039DFF4E6FA95F1F76ACF5058BB27AA27DC
S11303200ED0E0C0D1D030F0D6D020F031F49F3FD1
S113033011F41EF4C6C00EF4E095E7FBBCC0E92F2F
S1130340E2D080F3BA17620773078407950718F0A1
S113035071F49EF5FAC00EF4E0950B2EBA2FA02D81
S11303600B01B90190010C01CA01A0011124FF275E
S1130370591B99F0593F50F4503E68F11A16F04059
S1130380A22F232F342F4427585FF3CF4695379558
S11303902795A795F0405395C9F77EF41F16BA0B1D
S11303A0620B730B840BBAF09150A1F0FF0FBB1FCB
S11303B0661F771F881FC2F70EC0BA0F621F731F14
S11303C0841F48F4879577956795B795F7959E3F71
S11303D008F0B3CF9395880F08F09927EE0F9795FF
S11303E08795089598D088F09F5790F0B92F992752
S11303F0B751A0F0D1F0660F771F881F991F1AF02C
S1130400BA95C9F712C0B13081F09FD0B1E0089518
S11304109CC0672F782F8827B85F39F0B93FCCF399
S1130420869577956795B395D9F73EF49095809521
S1130430709561957F4F8F4F9F4F0895E89409C041
S113044097FB3EF490958095709561957F4F8F4F03
S11304509F4F9923A9F0F92F96E9BB279395F69519
S1130460879577956795B795F111F8CFFAF4BB0F97
S113047011F460FF1BC06F5F7F4F8F4F9F4F16C0FB
S1130480882311F096E911C0772321F09EE8872F85
S1130490762F05C0662371F096E8862F70E060E041
S11304A02AF09A95660F771F881FDAF7880F9695BA
S11304B0879597F9089597F99F6780E870E060E061
S11304C008959FEF80EC089500240A9416161706E9
S11304D018060906089500240A9412161306140631
S11304E005060895092E0394000C11F4882352F094
S11304F0BB0F40F4BF2B11F460FF04C06F5F7F4F4C
S11305008F4F9F4F089557FD9058440F551F59F032
S11305105F3F71F04795880F97FB991F61F09F3FEC
S113052079F087950895121613061406551FF2CF15
S11305304695F1DF08C0161617061806991FF1CF65
S113054086957105610508940895E894BB2766278C
S11305507727CB0197F9089566D008F48FEF0895B3
S11305600BD0C0CFB1DF28F0B6DF18F0952309F027
S1130570A2CFA7CF1124EACFC6DFA0F3959FD1F372
S1130580950F50E0551F629FF001729FBB27F00D3D
S1130590B11D639FAA27F00DB11DAA1F649F662792
S11305A0B00DA11D661F829F2227B00DA11D621FE1
S11305B0739FB00DA11D621F839FA00D611D221F9B
S11305C0749F3327A00D611D231F849F600D211D7F
S11305D0822F762F6A2F11249F5750408AF0E1F022
S11305E088234AF0EE0FFF1FBB1F661F771F881F6B
S11305F091505040A9F79E3F510570F05CCFA6CFB3
S11306005F3FECF3983EDCF3869577956795B79555
S1130610F795E7959F5FC1F7FE2B880F911D96957F
S1130620879597F90895990F0008550FAA0BE0E8EC
S1130630FEEF16161706E807F907C0F012161306A0
S1130640E407F50798F0621B730B840B950B39F4E0
S11306500A2661F0232B242B252B21F408950A2646
S113066009F4A140A6958FEF811D811D0895F8948A
S1050670FFCFB6
S10F067241444320526573756C743A00D7
S9030000FC
